S01D00004E657565734672656552746F73426569737069656C2E73726563B0
S113000048740020712E00006D2E00006D2E00003B
S113001000000000000000000000000000000000DC
S11300200000000000000000000000008530000017
S1130030000000000000000061310000A531000054
S11300406D2E00006D2E00006D2E00006D2E000040
S11300506D2E00006D2E00006D2E00006D2E000030
S11300606D2E00008D1E00009D1E0000AD1E0000C0
S1130070BD1E0000CD1E0000DD1E00006D2E000020
S11300806D2E00006D2E00006D2E00006D2E000000
S11300906D2E000000000000000000006D2E000026
S11300A06D2E00006D2E00006D2E00006D2E0000E0
S11300B00000000010B5064C2378002B07D1054B37
S11300C0002B02D0044800E000BF0123237010BDC0
S11300D0BC000020000000002C550000084B10B5A7
S11300E0002B03D00749084800E000BF0748036815
S11300F0002B00D110BD064B002BFBD09847F9E72D
S113010000000000C00000202C5500002C55000009
S113011000000000F0B5C64600B582B0134D144C83
S1130120144B984604E00022114B1A80124B984756
S11301302B889BB222889A4215D0104B98470C4EBC
S113014033880F4FF95C0F480F4B98476B46D871B3
S113015033880022FA5401339BB20C4A9342E2D80A
S1130160034A1380E2E73220C047E1E7E041002080
S1130170E2410020B13E00002D31000015310000A5
S1130180E44100202C41002015270000FF0100005D
S1130190F8B5CE46474680B50400224B9847002365
S11301A02149224A90460020214A91468C4602E089
S11301B05AB2002A15DBE6183778002F11D00A88C6
S11301C092B24546AF5430700A88013292B20A8026
S11301D00133DBB20A8892B24A45E9D962461080FB
S11301E0E6E7114B1A8892B210490A2088541A88FB
S11301F0013292B21A801A8892B2033088541A8853
S1130200013292B21A801B889BB2094A934202D9E6
S11302100022054B1A80074B98470CBC9046994620
S1130220F8BDC04615310000E0410020E441002043
S1130230FF0100002D3100000FB430B583B006ABD0
S113024020CB0193094C1B2209492000094B9847F4
S113025020001A30019A2900074B98472000074BC9
S1130260984703B030BC08BC04B018476041002074
S1130270185000001D47000039490000910100009A
S11302800FB430B583B006AB20CB0193094C1B22CD
S113029009492000094B984720001A30019A290087
S11302A0074B98472000074B984703B030BC08BC65
S11302B004B0184760410020E04F00001D470000D3
S11302C039490000910100000FB430B583B006AB8A
S11302D020CB0193094C1B2209492000094B984764
S11302E020001A30019A2900074B98472000074B39
S11302F0984703B030BC08BC04B0184760410020E4
S1130300345000001D4700003949000091010000ED
S11303100FB430B583B006AB20CB0193094C1B223C
S113032009492000094B984720001A30019A2900F6
S1130330074B98472000074B984703B030BC08BCD4
S113034004B0184760410020FC4F00001D47000026
S1130350394900009101000070B592B000250024D5
S1130360304B1D80304B1D80304E0B223049300005
S1130370304B98473000304B984702AB8022D2056F
S113038002925D60FF221A819C72DC72FE3A242183
S11303905A5401315A5425329C5401329C549D6262
S11303A005329C5401329C545D611D82DC761C76BE
S11303B01C775C761A3A9A765C77E12252021A62CA
S11303C080225203DA601D4A1A631D4A5A630122CD
S11303D052429A63DA631B4D1B4C02AA1B49280044
S11303E0A0470028F9D1174D2C682000184B9847D6
S11303F01F2318401E3B8340164A13602A68D369A2
S1130400002BFCD12368022213432360124B019377
S113041000920023FD22D20010491148114CA0473C
S113042012B070BDE0410020E24100206041002094
S1130430C84F00001D470000910100000300280080
S1130440030029002C410020D92300000018004299
S11304505D1E000000E100E0D8000020D44F000041
S1130460150100002D3A0000F8B50700082830D81F
S113047044010834651CFF3510212800164B9847A9
S1130480164E2800B0470028FBD180239B00E018BB
S11304901F21114B98470123BB40DB431BB210497A
S11304A00A881A400A800F490A8813400B807A0090
S11304B000210D4BD1520D4B0022DA55C0239B0075
S11304C09C466444054D2000A8470028FBD1013018
S11304D0F8BD01204042FBE7850A0000210A000024
S11304E0DC000020DE000020E8000020E000002006
S11304F0F0B5C64600B584B005000F001600984656
S1130500082800D999E0012963D0002900D197E097
S1130510042900D994E043465B0700D593E04346A1
S1130520002B03D0012F60D0022F65D02800474B49
S113053098476C0108340F234146994339432000FE
S1130540434B9847002E09D1424B1E88731C9BB223
S1130550414A934200D16CE03E4A1380310A802321
S1130560DB00E0183A4FB847F1B2A023DB00E018F3
S1130570B847661CFF3601213000B847374F3000BA
S1130580B8470028FBD10122AA40D24312B2344812
S113059003881340012146463140A9400B430380A0
S11305A030490B881A400A806B0000212E4A995268
S11305B02E4B00225A55C0239B009C466444274E70
S11305C02000B0470028FBD068B204B004BC9046B9
S11305D0F0BD042203A9F0200001254B9847039B9A
S11305E003204042002B96D1EFE7212342461342D9
S11305F09CD106204042E8E743469B060AD5434681
S11306006A46D371D3795BB2002B00DA8EE70620F9
S11306104042DAE74346DB0600D487E743466A46AE
S1130620D371D3795BB2002B00DA7FE70620404216
S1130630CBE7104A074B1A8090E701204042C4E7F9
S113064005204042C1E706204042BEE7690400009D
S1130650850A000000000020F0FF0000210A0000CD
S1130660DC000020DE000020E8000020E000002084
S1130670E50A000000C0FFFFF8B50700082828D8E5
S1130680440108342000174B98470F2318400128D1
S113069022D1C0239B00E6183000124B9847132840
S11306A01DD10134FF34022120000F4B98470D4D1A
S11306B02000A8470028FBD130000A4B9847142893
S11306C001D11338F8BD3800084B98470420404244
S11306D0F8E701204042F5E705204042F2E7032015
S11306E04042EFE7210A0000850A00006904000087
S11306F0F0B583B0060008283BD844010834200034
S11307001F4B98470F231840012835D1651CFF352E
S1130710082128001B4B9847194F2800B847002888
S1130720FBD1194901221000B0400B8883430B8090
S1130730164B1B88334100201A4218D1C0239B005A
S11307409C46A444634601930D4F3D000198B8476D
S113075000280BD080239B00E018A8470307F5D599
S113076030000B4B98470D20404200E0013003B0AD
S1130770F0BD01204042FAE705204042F7E7C046B9
S1130780210A0000850A0000DE000020DC000020B1
S113079069040000F0B5DE4657464E464546E0B5CE
S11307A083B0050001911400082800D985E04301B5
S11307B00822904698444046474B98470F231840D8
S11307C0012800D07CE0002C00D17CE0C0239B00F9
S11307D0434400931800404B9847172802D01C2824
S11307E000D073E03D4B1B882B41DB071CD58026D2
S11307F0B60046443000384B98470300C20609D47B
S113080000201B0725D403B03CBC90469946A24661
S1130810AB46F0BD10213000314B98472F490122DF
S1130820AA400B8893430B80F820400140442A4B94
S113083098478002061C80B2A04200D9261CB6B29A
S11308400127AF40274B9A46234B9946264B9B469C
S11308500DE02800254B98470D204042D3E728009F
S1130860224B984707204042CDE7A6420ED92800E4
S1130870D04704000098C847172801D01C28EED19F
S11308805B461B881F42F0D0A64222D83200019951
S11308902800174B984744460134FF342021200098
S11308A00F4B98470C4D2000A8470028FBD10B4A5A
S11308B013881F4317803000A5E701204042A2E7B8
S11308C0052040429FE70E2040429CE7072040421B
S11308D099E7002097E7C046210A0000DE000020C7
S11308E0850A0000E90B0000DC0000206904000018
S11308F0A10C0000F0B5DE4657464E46C0B584B0A4
S11309000190029193460400082800D970E0450143
S1130910083528003B4B98470F23184001286AD11B
S11309205B46002B6AD0F0235B01E818354B9847EF
S113093003900127A740344B9946324E334B9A46D5
S11309400198C8470400C0239B00E818B047172843
S113095020D01C2818D1002C23D10198D0470400A2
S1130960F8235B01E818274B98478002844205D09E
S1130970274B1B881F42E3D0002030E00198254B11
S11309809847072040422AE00198224B98470720C5
S1130990404224E01E4B1B881F4226D00020002C1E
S11309A01DD0039B9B021A1C9BB25B4500D95A467F
S11309B0101C92B2A24200D9201C84B222000299D7
S11309C00198154B98470135FF3540212800134BFA
S11309D098470C4E2800B0470028FBD1200004B0F3
S11309E01CBC91469A46A346F0BD002CA8D0D8E77B
S11309F001204042F3E705204042F0E70E20404248
S1130A00EDE7C046210A0000450C0000E90B000098
S1130A10DC00002069040000150D0000850A0000B8
S1130A2030B583B00400164DEB6898476B6998475E
S1130A306B6A002B16D0124B9B6A002B12D001A8B4
S1130A40220C0270220A42708470032198470C4CD5
S1130A50E36998470500A3699847236998472800E4
S1130A6003B030BD200CC0B2054D2B6A9847200A54
S1130A70C0B22B6A9847E0B22B6A9847E7E7C046B2
S1130A800400002070B582B004000E00144DEB6821
S1130A9098476B69984704200443AB6A002B0FD036
S1130AA001A8220C0270220A42708470C6700421CC
S1130AB098470B4CA36998472369984702B070BDC7
S1130AC0200CC0B2064D2B6A9847200AC0B22B6A8C
S1130AD09847E0B22B6A98472B6A30009847E8E7BA
S1130AE004000020F0B583B004000F0016001D4D73
S1130AF0EB6898476B6998476B6A002B17D0194BC2
S1130B009B6A002B13D001A8220C0270220A4270A7
S1130B10847003219847134B5B6A3100380098476F
S1130B20104CA36998472369984703B0F0BD200C83
S1130B30C0B20C4D2B6A9847200AC0B22B6A984762
S1130B40E0B22B6A9847002EEAD03C00013EB5B2D1
S1130B5001357D19034EF369984720700134AC4286
S1130B60F9D1DDE704000020F0B583B004000E00E5
S1130B7015001C4FFB6898477B6998470420044381
S1130B80BB6A002B13D001A8220C0270220A427007
S1130B90847003219847134B9B6A290030009847BF
S1130BA0104CA36998472369984703B0F0BD200C03
S1130BB0C0B20C4F3B6A9847200AC0B23B6A9847C0
S1130BC0E0B23B6A9847002DEAD03400013DADB253
S1130BD001357619034D20782B6A98470134B442C5
S1130BE0F9D1DDE704000020F0B583B040010830FE
S1130BF080239B019C468444634600930300842223
S1130C00920194466344019300270D4D2E0001E0A8
S1130C10A74212D00098A847000284B20198A847BE
S1130C202418A4B2002CF3D00098B047000287B275
S1130C300198B0473F18BFB2EAE7380003B0F0BDEF
S1130C40210A0000F0B583B04001083098239B01CD
S1130C509C4684446346009303009C22920194467C
S1130C606344019300270D4D2E0001E0A74212D0EA
S1130C700098A847000284B20198A8472418A4B297
S1130C80002CF3D00098B047000287B20198B04717
S1130C903F18BFB2EAE7380003B0F0BD210A0000F4
S1130CA0F0B5C64600B582B00091141E03D102B05F
S1130CB004BC9046F0BD8600751CED0090239B019A
S1130CC09C46AC446346019360460F4FB847804648
S1130CD094229201944665442800B8474246130280
S1130CE0181887B2B01CC0003B02C018220000993B
S1130CF0064B9847E419A4B2210A0198044EB04760
S1130D00E1B22800B047D2E7210A0000690B0000D5
S1130D10850A0000F0B5C64600B582B00091141EE5
S1130D2003D102B004BC9046F0BD8600751CED00F2
S1130D30A0239B019C46AC446346019360460F4F3D
S1130D40B8478046A4229201944665442800B847D7
S1130D5042461302181887B2F01CC0003B02C018A8
S1130D6022000099064B9847E419A4B2210A01987D
S1130D70044EB047E1B22800B047D2E7210A000090
S1130D80E50A0000850A0000704770477047704705
S1130D900078C0B2704701707047002070477047F8
S1130DA0002805D0002903D0044B5861996170478D
S1130DB0024B034A5A61034A9A61F8E7040000208F
S1130DC08D0D00008F0D00000A4B1B8880229200BD
S1130DD01340002BFDD0002805D0002903D0054B7B
S1130DE0D86119627047034B034ADA61034A1A62F5
S1130DF0F8E7C046040000209B0D00009F0D000092
S1130E00F0B587B0062201A990200001174CA04735
S1130E1080277F00042205A93800A047A026F600F9
S1130E20042204A93000A047F0252D01042203A9BF
S1130E302800A047802100200D4B984700200D4B2F
S1130E409847062201A9902000010B4CA0470422D8
S1130E5005A93800A047042204A93000A0470422B1
S1130E6003A92800A04707B0F0BDC046E50A00006A
S1130E70850A0000210A0000690B0000F0B5C6468F
S1130E8000B505000E00254B9847002D19D000230E
S1130E90EB56102B34DC6A1C280008301178CB1870
S1130EA05BB2102B2FDC01329042F7D11C4C1D4B4E
S1130EB098461D4F29782000C04701352034BC4294
S1130EC0F8D1002E22D00023F356102B20DC721C04
S1130ED0300008301178CB185BB2102B1BDC0132C8
S1130EE09042F7D1114C0F4F0D4D31782000B84787
S1130EF001362034AC42F8D1002004BC9046F0BD49
S1130F0001204042F9E701204042F6E70020F4E7DF
S1130F1001204042F1E701204042EEE7010E0000CB
S1130F20081F0000850A000008200000081E0000B9
S1130F30F8B5060AF0210140A82040010A4B984761
S1130F408225AD000024012703E001342035082C5C
S1130F5008D0330023411F42F7D01F212800024B41
S1130F609847F2E7F8BDC046850A000070B5A8208E
S1130F704001064DA8470400B8204001A8470002DC
S1130F8080B2F0231C40001980B270BD210A000019
S1130F9070B50400C1B2B0204001034DA847210A36
S1130FA0C0204001A84770BD850A000070B5B0207C
S1130FB04001054CA0470500C0204001A0470002A5
S1130FC0401980B270BDC046210A000010B5B82097
S1130FD08001024B98470123184010BD210A0000EC
S1130FE010B5B8208001054B9847030038201840FD
S1130FF030384342584140B210BDC046210A000077
S113100070B5B824A4012000074EB0477F210140E9
S11310102000064DA8472000B047802149420143E3
S1131020C9B22000A84770BD210A0000850A00004B
S113103010B5017801394B42594189014378012B9C
S11310400CD0C378012B0CD08378012B12D0B8209C
S113105080010A4B98470A4B984710BD3733194310
S1131060F5E78378012B02D008231943EFE7173300
S11310701943ECE70F331943E9E7C046850A00003A
S11310800110000010B50400B8208001134B9847EC
S11310904306DB0F237038231840202804D0382857
S11310A002D00023637001E001236370182806D086
S11310B0202804D0102802D00023A37001E00123CB
S11310C0A370182806D0202804D0082802D00023B2
S11310D0E37010BD0123E370FBE7C046210A000062
S11310E010B50400B8208001174B9847430628D553
S11310F0C7210840012C11D038210143B824A40190
S11311002000124B9847124B984720000E4B9847EB
S113111038220023024211D0180010BD9739014330
S1131120B824A4012000094B9847094B9847200094
S1131130054B9847302200230242EDD101235B4244
S1131140EAE701235B42E7E7210A0000850A000081
S11311500110000070B50C000F2800D970E0800069
S11311603C4B1B589F46002070BD3B4B98470020CA
S1131170FAE7002904D008312000384B9847F3E7F8
S11311800021F9E70888364B98470020ECE7354BF7
S1131190984720800020E7E70888334B98470020D1
S11311A0E2E7324B984720800020DDE70988090AEE
S11311B0982040012E4DA8472178A0204001A8473F
S11311C00020D1E7982040012A4EB0470500A02016
S11311D04001B0472D02281820800020C4E7264B88
S11311E09A780A70DA784A701A798A705A79CA70C9
S11311F09B790B7100234B710020B5E71F4B984777
S11312000020B1E708001E4B98470020ACE7080017
S11312101C4B98470020A7E708781B4B9847A3E787
S11312201A4B9847C0B2FF280DD0207000209BE7CE
S1131230174B9847C0B2FF2808D02070002093E7CE
S11312400120404290E7012040428DE701204042C6
S11312508AE7C04650500000010E00007D0E0000D9
S1131260310F00006D0F0000910F0000AD0F000062
S1131270850A0000210A000004000020011000007B
S11312803110000085100000E1100000E10F0000A3
S1131290CD0F000070B5040006220100902000016B
S11312A00F4DA84721000E31042280204000A8479A
S11312B021000A310422A020C000A847A11D042255
S11312C0F0200001A847074BA27C1A70E27C5A70F8
S11312D0227D9A70627DDA70A27D034B1A7070BD14
S11312E0690B0000FC000020F800002070B5040029
S11312F006220100902000010F4DA84721000E3165
S1131300042280204000A84721000A310422A020A2
S1131310C000A847A11D0422F0200001A847074BE4
S11313201A78A2745A78E2749A782275DB78637515
S1131330034B1B78A37570BDE50A0000FC00002078
S1131340F800002010B5012202490348034B9847D6
S113135010BDC046204C0020E44B00201D2100009D
S113136010B5002202490348034B984710BDC046FC
S1131370204C0020E44B00201D21000010B582B059
S113138001AB00221A80198889B26B469C1D220089
S11313900448054B9847208880B2431E9841C0B248
S11313A002B010BDE44B0020B520000000B583B0AE
S11313B081B26B469A1D0248024B984703B000BDA8
S11313C0E44B0020B5200000F0B58FB02B4C072370
S11313D0237000236370A370012269464A708B70E6
S11313E00A700720264B98472378D9090022002940
S11313F004D15A09D20123498C4662441F26334042
S1131400012529009940916101AC257000230293C4
S1131410039323746374A574E5742022A354143ACB
S1131420002106A8184B9847184B636188235B0377
S1131430E360174B6362174BA362174BE36201230C
S11314405B422363154F220015493800154B98471A
S11314503C682000144B98470640B540134B1D6070
S11314603A68D369002BFCD123680222134323601A
S11314700F48104B98470FB0F0BDC046204C0020D9
S1131480851A0000004400412F470000A086010097
S11314900200090002000A0002000B00E44B0020D5
S11314A000080042ED1E00005D1E000000E100E0A7
S11314B0385100008102000010B50248024B9847E1
S11314C080B210BD04010020F9480000F0B5A1B0BD
S11314D00600802200216846184B98476846184C3D
S11314E0A047684412221749174DA8476846A047E9
S11314F068441A221549A8476846A047684414223C
S11315001349A847134B984703006A461249684693
S1131510124FB8476846A047684405221049A847B7
S11315206846A04782B2694630000E4B9847694628
S11315300D480E4B984721B0F0BDC0462F47000020
S1131540F9480000CC5200001D470000E0520000A2
S1131550FC520000B914000010530000B54800000C
S1131560285300009507000030530000810200005A
S113157070B505000B4C20000B4B984782B221003C
S113158028000A4B9847210009480A4B9847230032
S11315908022D20094466444002119700133A3428E
S11315A0FBD170BD04010020F9480000950700003C
S11315B0305300008102000010B504000B78472B63
S11315C001D0012010BD4B78452BFAD18B78542BD8
S11315D0F7D1CB78202BF4D14B793F2B05D00C4B92
S11315E0984720000B4B9847EBE74B7A4F2B02D1DF
S11315F08B7A4E2B06D02000054B98472000054BD4
S11316009847DEE7024B98472000024B9847D8E7FB
S1131610CD14000071150000F0B587B004000391EB
S11316200292019046010836C0239B00F518280059
S11316302D4FB84704ABD87121002C482C4B984748
S11316402800B847132849D008D9172813D01C28D4
S113165048D12000274B984707B0F0BD002841D15E
S11316600023029A01212000234CA047019B8342BE
S1131670F2D10120F0E780239B00F51828001A4BD3
S11316809847C30725D41D4B013B9BB2002BFBD1CC
S113169020001B4B984703000120002BDCD01A1CB0
S11316A0802109019BB28B4201D9164B1A8892B250
S11316B0039D29002000144B98470028CCDD290005
S11316C012480B4B984729002000114B98470120E2
S11316D0C2E7012128000F4B9847D4E720000E4BA6
S11316E09847B9E70120B7E7210A00000451000038
S11316F081020000F1060000F10400001027000040
S1131700450C000090500000F5080000185100003E
S1131710B9150000850A00007906000010B582B0F2
S11317200F4B98470F48104CA0471048A04710484B
S1131730104B98471048114B98471148114B984744
S11317401148A047114B01930123009300238022E9
S1131750D2000F490F48104CA04702B010BDC0463C
S11317605903000034530000390200005C530000A8
S11317706C530000810200007C530000C902000089
S11317809053000011030000A0530000000100204A
S1131790D0530000D11800002D3A000030B587B0B6
S11317A0002215236B441A7001A91B4B0A0031CB8C
S11317B031C21B681360402216236B441A80012037
S11317C0164B9847431C0AD0162169440420134B36
S11317D09847431C07D015246C44104D0BE0104867
S11317E0104B9847F0E71048104B9847F3E7002355
S11317F0E356002B0BD121000F20A847431CF6D140
S11318000B48084B98470A200A4B9847EFE70A48C9
S11318100A4B984707B030BD9450000055110000A2
S1131820A450000011030000C05000008102000019
S1131830D4500000E9190000F05000003902000003
S113184030B585B0194C172200212000184B984759
S11318502000184B9847A378627821786079029029
S113186020790190E07800901348144DA847237A1A
S1131870E279A179607A00901148A847237BE27A43
S1131880A17A607B00900F48A847237CE27BA17B70
S1131890607C00900C48A847237DE27CA17C607D9D
S11318A000900A48A84705B030BDC046300000206B
S11318B02F470000ED1200002C52000039020000F6
S11318C05C5200007852000094520000B0520000B4
S11318D070B58AB0DA221E491E481F4B98471F492B
S11318E01F48204B984720492048214B9847214BBB
S11318F09847214B9847214C2000214B984704A836
S1131900204EB0471722002120001F4DA847200079
S1131910B0470622002102A8A84702A908201B4BB1
S113192098476B466122DA71194AD2B2DA71194AC0
S1131930D2B2DA71184E194D194CB0475022290011
S11319400120A047FA204000164B9847F5E7C0460F
S113195048510000040100201D470000AD130000A1
S11319607D130000C90D0000611300004513000041
S1131970A10D0000C91300009D17000030000020D5
S113198095120000ED1200002F47000055110000D1
S1131990245200002852000041180000E4430020B3
S11319A019160000B13E000070B50020084B98479E
S11319B00500084CFA218900A047074B1860074925
S11319C02800A047064B18600522064B1A6070BD1C
S11319D0212C0000694500004800002040420F000F
S11319E04C00002010E000E030B5084B1C68084AA9
S11319F0002580214902013807D3002CFBD0546014
S1131A00956013680B42FCD0F5E730BD4800002018
S1131A1010E000E00C4B1B68002B06D1EFF31083A1
S1131A20002B07D00022094B1A70074A13680133B0
S1131A301360704772B6BFF35F8F0022044B1A70B5
S1131A400132024B1A70F0E704050020080500205B
S1131A5050000020084B1A68013A1A601B68002BDA
S1131A6009D1064B1B78002B05D00122044B1A70B8
S1131A70BFF35F8F62B6704704050020080500209D
S1131A805000002000B583B001AB80221A700A78A0
S1131A905A704A789A708A78DA701900014B98471C
S1131AA003B000BD312E0000F0B5DE4657464E4669
S1131AB04546E0B587B08046049116001F00002219
S1131AC0002300218B463F2401202100009601972A
S1131AD05C4603944446059413E02024641A0500EC
S1131AE0E540A84614E0009C019D121BAB415C46F6
S1131AF04D462C43A346039C45462C43039401398D
S1131B0025D3202464420C19E7D40500A540A84637
S1131B1004008C40A14692185B4114001D00059EF0
S1131B204F463E40B446049E47463E40B246664653
S1131B3057463E4303D00600264332002B00009C48
S1131B40019D9D42DBD8CED19442D8D8CBE7039BEC
S1131B505846190007B03CBC90469946A246AB468D
S1131B60F0BD10B5490840230024814202D2180078
S1131B7010BD1C00091A631C9BB28842F9D940238A
S1131B80FF2CF4D814800023F1E70000F0B583B0F3
S1131B900F00160008AA117804004C434022BC42EE
S1131BA002D9100003B0F0BD002B14D102000800CC
S1131BB00021194CA04701003A0000230020174CD3
S1131BC0A04700220123121A8B41120C1B041A4352
S1131BD032800022E5E70022012BF9D10A0000231C
S1131BE000210D4CA04702000B0000920193380025
S1131BF000210A4CA047050080239B014022984203
S1131C00CFD8790FF800009A019BA047EA00821A06
S1131C10D2B252032A43DBE781460000A91A00002E
S1131C2010B582B004000E4B1B78002B07D000299E
S1131C3005D10B4B5B78834210D01D200CE001A929
S1131C400C701320074B98471320074B9847044BFD
S1131C505C7001221A70002002B010BD0020FBE766
S1131C600C050020392D0000AD2C0000404B98429B
S1131C7031D00AD93F4B98424DD03F4B98425AD06D
S1131C803E4B984237D0002070473D4B98420CD0D1
S1131C903C4B9842F7D1012917D000295DD0022985
S1131CA015D0032915D00020EEE7012907D000291B
S1131CB051D0022905D0032905D00020E4E7324899
S1131CC0E2E73248E0E73248DEE73248DCE7324810
S1131CD0DAE73248D8E7012907D000293FD00229A2
S1131CE005D0032905D00020CEE72D48CCE72D48A8
S1131CF0CAE72D48C8E7012907D0002931D00229B5
S1131D0005D0032905D00020BEE72848BCE72848B1
S1131D10BAE72848B8E7012907D0002923D00229C7
S1131D2005D0032905D00020AEE72348ACE72348BB
S1131D30AAE72348A8E7012907D0002915D00229DA
S1131D4005D0032905D000209EE71E489CE71E48C5
S1131D509AE71E4898E71E4896E7032094E71D4833
S1131D6092E71D4890E71D488EE71D488CE7C04662
S1131D700010004200180042001C004200140042FF
S1131D8000080042000C00420300050003000600A6
S1131D90030007000300010003001E0003001F00EE
S1131DA00300090003000A0003000B0003001100F4
S1131DB0030012000300130003000D0003000E00D3
S1131DC003000F00030017000300180003001900AC
S1131DD003000400030008000300100003000C00CB
S1131DE00300160030B587B00B4B6A4632CB32C2C3
S1131DF032CB32C2009B83420BD001239A00694646
S1131E005258824206D00133062BF7D1002007B086
S1131E1030BD0023D8B2FAE7E05300007047000059
S1131E20F0B50A4B1B78002B0CD1094F094E0A4D13
S1131E300024DE515A1914600433182BF9D10122FD
S1131E40024B1A708000024BC150F0BD0E050020F9
S1131E50100500201D1E00002454002000B583B08E
S1131E6009236A46137001335370013393700133AD
S1131E70D3700133137101335371034B98476B468D
S1131E80185603B000BDC046E51D000010B5024B56
S1131E901B680020984710BD1005002010B5024BA8
S1131EA05B680120984710BD1005002010B5024B57
S1131EB09B680220984710BD1005002010B5024B06
S1131EC0DB680320984710BD1005002010B5024BB5
S1131ED01B690420984710BD1005002010B5024B63
S1131EE05B690520984710BD10050020F0B58BB044
S1131EF005000C00160029600B681C209B0701D507
S1131F000BB0F0BD0B681738DB07F9D408005C4B45
S1131F1098475C4A116A871C0123BB400B43136238
S1131F2009A92027F35D0B701430C3B20193180084
S1131F30554B98470198554B9847F05D0021544BF9
S1131F4098473378012B38D02B000C3329002831E3
S1131F50002204C38B42FCD10023EB62AB62002459
S1131F60AB862B863633EC540133EC540133EC54FA
S1131F70353B2B722C712868414B98470700454923
S1131F80454B9847BF00454BFD502F6804AB80225A
S1131F901A705C707F3A9A70DC703378002B02D12F
S1131FA0002204AB9A70736A0593B36A0693F36ACA
S1131FB00793336B089300240BE023680C2213432C
S1131FC02360C1E73800364B98470AE00134042CFB
S1131FD010D0E1B2A30002AA0C201218D058002895
S1131FE0F0D0431CF2D004A90870000CC0B22D4BF1
S1131FF09847EBE733786B71337CAB71B37CEB714F
S1132000002202ABDA803378012B22D07368B268E5
S11320101343F2681343327C717C002903D12249B3
S11320208978890701D580210B43B17C002902D02E
S1132030802189020A43F17C002902D08021890091
S11320400A4339680B433B607B6813437B60002081
S113205056E728680A4B98471430C0B2134B984788
S1132060010002AB9A1D7069114B984703001720B9
S1132070002B00D044E702AB06331B783B73C5E763
S1132080E51D000000040040392D0000AD2C0000C7
S1132090211C000009220000211E000024540020FD
S11320A06D1C0000312E000000200041552D000061
S11320B0631B000030B5C4791C23002C01D1180027
S11320C030BD1C33C45C333B052CF8D004680125B7
S11320D0237E2B42FCD0237EDB0702D5C905C90D24
S11320E0A162016804240B7E2342FCD00C7E1023E1
S11320F06407E4D54C8B0023640702D504334B8377
S11321001A338079012803D0896AC9B21180D6E7CD
S1132110896AC905C90D1180D1E7000010B5447959
S11321201523012C01D0180010BD002A58D04B787B
S1132130002B44D003681B7EDB0710D40A78D10936
S11321400023002904D15309DB012E498C46634442
S11321501F21114001228A409A610523E3E70A788E
S1132160D4090023002C04D15309DB01254CA446D7
S113217063441F2414400122A2405A6103681A7E5A
S1132180D20701D58A789A62C2790023002ACAD17B
S113219002680421137E0B42FCD0117E0023490700
S11321A0C1D5538B5B0701D5042353838379012B5A
S11321B002D0936A0023B6E7936A0023B3E70A7850
S11321C0D1090023002904D15309DB010D498C46B0
S11321D063441F21114001228A405A610023A2E76F
S11321E00A78D1090023002904D15309DB010549E8
S11321F08C4663441F21114001228A409A610023C6
S113220091E7C04600440041F8B58000704BC458C3
S113221026683723E75C3622A25C1740337EB57DFF
S11322201D40EB0702D56379012B1ED06B0711D536
S1132230738B5B075AD5237A012B08D01E223823CF
S1132240E254353B2372023333753B074AD4B36AF5
S113225004237383AB0703D56379012B00D197E083
S11322606DB2002D00DAA9E0F8BD237A002B22D04C
S1132270237A002BDAD02168E26A1378DBB2501C8F
S1132280E062A079012827D09BB2DB05DB0D8B62CD
S1132290A38E013B9BB2A386A38E9BB2002BC5D118
S11322A001333375237A012BC0D1E379002BBDD1DF
S11322B00233B375BAE7474B1B88B362638E013BA5
S11322C09BB26386638E9BB2002B01D101333375BD
S11322D06379012BCCD0A9E7507800020343023282
S11322E0E262D2E72000A3699847B0E7237A012B82
S11322F028D023689B6ADB05DB0DDAB2A16A0A7079
S1132300A26A511CA162A179012934D0238E013B18
S11323109BB22386238E9BB2002B00D09AE7002227
S11323203833E254343B3375237A022B29D0237A91
S1132330002B00D08EE7BB0700D48BE72000236975
S1132340984787E723689B6A638E013B9BB2638649
S1132350638E9BB2002B00D07CE7043333750022DC
S11323603433E254353B2372FB0700D472E7200078
S1132370E36898476EE71B0A5370A36A0133A362AC
S1132380C4E77B0700D465E720006369984761E7E9
S1132390237A012B00D063E7E379002B00D05FE7B9
S11323A0023333750133237200223533E254FB07C1
S11323B000D455E72000E368984751E7802333753C
S11323C033767B0600D44FE7636A200098474BE7D7
S11323D0245400203C540020F0B5DE4657464E46B7
S11323E04546E0B591B005000C00160029600800D0
S11323F0BA4B9847020023680520DB0706D511B0C5
S11324003CBC90469946A246AB46F0BD23681730C3
S11324109B07F4D4B249086A971C0123BB400343C9
S11324200B620FA92D27F35D0B701432D3B2029304
S11324301800AC4B98470298AB4B9847F05D0021CD
S1132440AA4B9847F37A6B712423F35CAB71252371
S1132450F35CEB71F37E2B72337F6B722B689846BF
S113246018009E4B9847143000220E2306A98C4670
S113247063441A80328A02928023DB019A4200D19B
S11324809AE00FD9C023DB01029A9A4200D18EE070
S113249080231B029A4200D01BE1032306930023EE
S11324A0079308E080239B019A4200D011E1102396
S11324B006930F3B079333680593F3689B46736950
S11324C00393337E04932623F35C9A4673689946F8
S11324D0002B00D19CE080235B05994500D180E06E
S11324E0737E002B02D0B37E424693730E2306AA5A
S11324F0944663441B8842469381059B5A46134382
S1132500039A13434A461343029F1F43049B1B022F
S11325101F4353465B071F432723F35C002B01D162
S113252004331F43737E9B02327F52021343727F34
S1132530120213432422B25C520413432522B25CD8
S113254012041343B17AF27A114319433389FF2BEE
S113255000D181E080225204174319432C23F35CF9
S1132560002B03D1624B9B789B0701D580231F432B
S11325702A68D369002BFCD1434659602A68D36981
S1132580002BFCD143461F600EAB80221A70002240
S11325905A70DA709A70336B0A93736B0B93B36B44
S11325A00C93F36B02930D9300270AAE63E00823A8
S11325B00693073B07937EE733680593F3689B46CE
S11325C073690393337E04932623F35C9A467368FA
S11325D09946002B18D080235B05994501D0002033
S11325E025E02723F35C002B00D079E7336A1F0032
S11325F0C0B2404B984701000E2206AB9C46624491
S113260038003D4B984712E00823069300230793B4
S11326102723F35C002B0ED0069B0093079B0E220E
S113262006A98C466244B16A306A344FB847002820
S113263000D0E4E654E7336A1F00C0B22D4B98473C
S11326400100069B0093079B0E2206A88446624461
S113265038002A4FB847EAE7F37E002B00D17DE724
S11326608023DB041F4379E72000254B984707E0CC
S11326700137042F0DD0F9B2BB0098590028F3D0CC
S1132680431CF5D00EA90870000CC0B21D4B98472E
S1132690EEE70023EB602B616B61AB61EB612B62B6
S11326A0AB626B620022EB85AB853033EA540133B5
S11326B0EA540133EA540133EA542868074B984733
S11326C004001149114B9847A400114BE550002018
S11326D095E61023069300230793ECE6E51D00001E
S11326E000040040392D0000AD2C0000211C000026
S11326F000200041552D0000631B00008D1B0000CD
S11327006D1C0000312E00003D270000211E00003A
S113271024540020C2791C23002A01D118007047D8
S1132720C28D92B2173B002AF8D1026811850221AA
S1132730137E0B42FCD00023F0E70000F8B58000C4
S1132740624BC5582C68E369002BFCD1237EA67D1F
S11327501E403023EB5C3122AF5C1F40F30722D5CF
S1132760EB8D9BB2002B1CD0AA6A1378DBB2511CF0
S1132770A962697901290ED09BB2DB05DB0D2385A3
S1132780EB8D013B9BB2EB85002B0CD10133237500
S11327900133A37507E0517809020B430232AA62A0
S11327A0EBE701232375B30706D502232375002223
S11327B03133EA54FB071AD4730765D5AB8D9BB24A
S11327C0002B5FD0638BDBB21A0714D43F22134073
S11327D0002B34D09A0711D51A223223EA54303B05
S11327E063837B0750D528006B6998474CE0280029
S11327F0EB689847E0E737221340E9E75A0705D525
S11328001E223223EA542E3B6383EAE7DA0705D516
S113281013223223EA54313B6383E2E7DA0605D517
S113282042223223EA54223B6383DAE720221A420B
S1132830D7D021323223EA54123B6383D1E7238D6C
S1132840DB05DB0DDAB2696A0A706A6A511C6962D7
S11328506979012910D0AB8D013B9BB2AB85002B6C
S113286012D10433237500222E33EA54BB070BD54F
S113287028002B69984707E01B0A53706B6A0133E1
S11328806B62E8E704232375F30604D5102323754C
S11328902376FB060ED4B30604D5202323752376B2
S11328A03B070BD4330704D5082323752376BB06D3
S11328B008D4F8BD2800EB699847ECE72800AB6919
S11328C09847EFE72B6A28009847F2E72454002042
S11328D010B5082803D880001C4B1B589F460020C5
S11328E032E01B4B18692FE01A4B1B6A9B059B0FA8
S11328F01948D84028E0164B586925E0144B1B684A
S113290000209B0720D513491022CB681A42FCD023
S11329100F4B1A6824231340042B01D00F4813E0F3
S113292000200F4B98470A4B9B681B041B0C584311
S11329300AE05023074AD35C00205B0704D5044B0C
S1132940D86801E08020000210BDC046F8530000A2
S1132950280500200008004000127A00006CDC0208
S1132960552D000070B50C490B6A047885784078C1
S11329700122104080014026B34303432A40D20180
S1132980802083431343032222401202034803405E
S113299013430B6270BDC04600080040FFFCFFFFFC
S11329A0082803D88000254B1B589F46172044E075
S11329B0234A136A02210B43136200203DE0204A9C
S11329C0936902210B439361002036E01C4A138A69
S11329D002210B43138200202FE0194A938A02211B
S11329E00B439382002028E016490B68022213430C
S11329F00B60134B9A8419000E32CB681A42FCD038
S1132A00104A91680E4BD96252689A6200229A84E5
S1132A1019001032CB681A42FCD00A4B1B689BB2D7
S1132A20074A9384002008E0054944228B5C022075
S1132A3003438B54002000E0002070471C54000026
S1132A400008004028050020F0B5C64600B584B053
S1132A50C222D200214B9A60214A53681E218B4323
S1132A60536001236A46137000241E4DE0B2694688
S1132A70A8470134252CF9D103A80024447001236C
S1132A80984683700470184B98470620174B984754
S1132A90174B98476B465C7006271F701C725C725C
S1132AA01023019369460320124EB0470320124DB0
S1132AB0A847124B1C725C729C72DC7243460193F1
S1132AC06B465C701F701C725C7269460020B047D4
S1132AD00020A84704B004BC9046F0BD00080040A4
S1132AE000400041392D000065290000A1290000A3
S1132AF0012B0000252B0000DD2B0000000400400A
S1132B00064A936908210B4393610122044B1A700E
S1132B1019000B781342FCD17047C04600040040F2
S1132B20000C004070B5060004000D782D0205432A
S1132B304B78002B02D08023DB021D434B7A002B01
S1132B4002D080231B031D434868012810D9431E6B
S1132B50184234D1022830D90223002201325B000A
S1132B609842FBD812023243140080235B031D43B6
S1132B700B7A002B02D080239B031D43134A537806
S1132B805BB2002BFBDB124B9847124B1E700F4AB3
S1132B9053785BB2002BFBDB0C4B9C601A00537820
S1132BA05BB2002BFBDB094A5368802149020B40CE
S1132BB01D435560084B984770BD0022D2E70402BC
S1132BC0344380239B021D43D2E7C046000C0040DF
S1132BD0151A0000080C0040551A000010B5040036
S1132BE00B4A53785BB2002BFBDB0A4B98470A4B2A
S1132BF01C70074A53785BB2002BFBDB044A516814
S1132C0080235B020B435360044B984710BDC046BE
S1132C10000C0040151A0000040C0040551A000076
S1132C2070B504001A4A53785BB2002BFBDB194BD6
S1132C309847194B1C70164A53785BB2002BFBDB88
S1132C40134E7068C004C00E144B98470500124B15
S1132C501C707668F602F60F114B1C700C4A537800
S1132C605BB2002BFBDB0A4B9C682402240C0D4B4B
S1132C709847002E07D1012C07D9210028000A4BC0
S1132C809847050001E00134E540280070BDC046C6
S1132C90000C0040151A0000040C0040D12800006C
S1132CA0080C0040551A00006945000010B50400E6
S1132CB0064B9847064B1C70064A53888021C9016D
S1132CC00B435380044B984710BDC046151A0000AF
S1132CD0020C0040000C0040551A000010B504001E
S1132CE00F4B98470F4B1C700F4A53881B05180F46
S1132CF053880E490B40538053880D490B40538031
S1132D0011008022D2014B881342FCD106494A8823
S1132D1003020648024013434B80064B984710BDFC
S1132D20151A0000020C0040000C0040FFF0FFFFE9
S1132D30FFBFFFFF551A000010B50C7824020443AE
S1132D40024B9847A4B2024B5C8010BDDD2C0000FE
S1132D50000C004010B50400064B9847064B1C704D
S1132D60064B5C882405240F054B98472000054B2F
S1132D70984710BD151A0000020C0040000C0040DA
S1132D80551A0000212C000030B5D378002B35D122
S1132D901378802B29D01B068024640223435478A3
S1132DA00225AC4306D19478002C20D18024A402BF
S1132DB0234341605478013C012C1CD90D042D0C93
S1132DC0A024E4052C431C4384620D0CD024240667
S1132DD02C431C438462D478002C22D15B031CD581
S1132DE09378012B1ED0416117E00023D7E7C0245C
S1132DF0E4022343DDE70D4C2340DFE741600C048C
S1132E00240CA023DB05234383620C0CD0231B0674
S1132E1023438362D378002B03D15378013B012BE6
S1132E2002D930BD8161F8E78160FAE7FFFFFBFF5B
S1132E3010B50A00C1090023002904D14309DB01AC
S1132E4005498C4663441F24204001218140180019
S1132E50024B984710BDC04600440041892D000034
S1132E6010B5014B984710BD492A0000FEE7000049
S1132E70F8B52A4A2A4B9A4211D01A00294B9A4291
S1132E800DD2294A03339B1A9B0801339B0000226D
S1132E90234822498C58845004329A42FAD1234A56
S1132EA0234B9A420AD2D34321495B1803218B4313
S1132EB004339B18002102C29342FCD11D4AFF2116
S1132EC01D4B8B439360FD3990235B001B4AD1500B
S1132ED01B4AD3780325AB4302242343D370D3780E
S1132EE00C27BB4308263343D370164B987B302200
S1132EF09043202210439873997BB94331439973CB
S1132F009A7BAA4322439A730F4A536880210B4346
S1132F1053600E4B98470E4B9847FEE72C55000024
S1132F2000000020BC00002004000020BC000020A1
S1132F304454002000ED00E0000000000070004157
S1132F40005000410048004100400041D5460000C7
S1132F50454500000300064A1268002A04D0044ACA
S1132F601068C318136070470249014A1160F6E7FC
S1132F704005002048740020030008334360012208
S1132F8052428260C36003610023036070470023E0
S1132F900361704743684B609A688A609A6851601D
S1132FA099600861036801330360704730B50C68A9
S1132FB002000832631C02D1026904E01A0053685B
S1132FC01D68AC42FAD253684B6099608A605160C4
S1132FD0086103680133036030BD03694268816896
S1132FE091608268416851605A68904206D000221C
S1132FF002611A68013A1A601868704782685A6058
S1133000F5E7000082B000230193064B1B680133EF
S113301001D072B6FEE772B6019B002BFCD002B061
S11330207047C0465400002000000000000000006B
S11330300B4A13681868203080F30988022080F353
S11330401488BFF36F8F3FBCAE4608BC04BC62B6A5
S11330501847C046C046C046C046C046C046C046E3
S1133060E43F002010B5031F802464041C60043B6B
S11330701960043B02491960143B1A60403810BDC2
S1133080053000007047000070B5124B1968FF222C
S113309012040A431A601968FF2212060A431A60CE
S11330A00D4D00242C600D4B1C6000200C4B9847E8
S11330B0C8210C4B984701380B4B186007232B6031
S11330C00A4B1C600A4B98470A4B98470A4B98478F
S11330D0002070BD20ED00E010E000E018E000E00A
S11330E0212C00006945000014E000E05400002099
S11330F031300000F13E000005300000802252050E
S1133100034B1A60BFF34F8FBFF36F8F7047C046F6
S113311004ED00E072B6044A136801331360BFF390
S11331204F8FBFF36F8F704754000020064B1B680E
S1133130002B01D172B6FEE7013B034A1360002B5A
S113314000D162B67047C04654000020EFF31080EF
S113315072B6704780F310887047000000000000CA
S1133160EFF309800E4B1A6820381060F0C0444613
S11331704D4656465F46F0C008B572B600F0B8FE3C
S113318062B60CBC116808681030F0C8A046A946A5
S1133190B246BB4680F309882038F0C81847C046B9
S11331A0E43F002010B5074B98470400064B9847AE
S11331B0002803D080225205044B1A602000044BDF
S11331C0984710BD4D310000913C000004ED00E033
S11331D05531000070B50400430702D007239C4317
S11331E00834114B9847114B1B68002B10D0104B1F
S11331F01B68E4180F4A944211D8A34211D20B4A17
S11332001568ED180A4B1C600B4B9847280070BDDD
S113321007220A4B08339343044A1360E7E7002567
S1133220F2E70025F0E7C046753C000044050020A5
S1133230E03F00208F3A0000B13D00004805002027
S1133240002801D072B6FEE77047000010B50400F4
S1133250034B9847A46B034B98476042604110BDF1
S1133260153100002D31000070B504001600856B87
S1133270026C002A0BD100202368834204D16068C9
S1133280164B9847002363600135A56370BD002E7B
S11332900ED18068124B9847A368226C944663440D
S11332A0A360002062689342EED32368A360EBE737
S11332B0C0680B4B9847236C5B42E268D218E2600B
S11332C021688A4203D2626894466344E360002022
S11332D0022ED9D18542D7D0013DD5E72D4100003A
S11332E01D47000070B582B001900A00846C002C68
S11332F005D0A16BE36B994203D372B6FEE772B6B5
S1133300FEE7A16B00268B4202D8300002B070BDEC
S11333104523E55C6DB201A920000A4B98470600DD
S11333206B1C0AD1636A002BEFD020002430064BBB
S113333098470028E9D00126E7E701356DB2452317
S1133340E554E2E769320000F13F000010B50C00DB
S1133350026C002A0BD0C3689B18C36041688B427F
S113336001D30368C360C1682000014B984710BDB6
S11333701D470000F8B50700254B98474523FC5C22
S113338064B2002C1CDD234E234D0BE07B6A002B22
S113339016D038002430A84700280ED1013C64B26E
S11333A0002C0DD0BB6C002BF0D000213800B047AE
S11333B00028F3D0194B9847F0E7184B9847EDE7EE
S11333C0FF224523FA54164B9847114B9847442340
S11333D0FC5C64B2002C14DD3B69002B11D03D0071
S11333E010350D4E06E0013C64B2002C09D03B6957
S11333F0002B06D02800B0470028F4D0074B98478C
S1133400F1E7FF224423FA54054B9847F8BDC04620
S113341015310000E5320000F13F000001410000D9
S11334202D31000070B504000D00002821D0174B89
S113343098472268216CE36B4B43D01860600020EE
S1133440A063A2605B1AD318E360FF234422A35451
S11334500132A354002D11D12369002B05D0200083
S113346010300B4B9847002805D10A4B9847012090
S113347070BD72B6FEE7084B9847F6E7200010309F
S1133480064DA84720002430A847EEE71531000078
S1133490F13F00002D310000FD300000792F0000C5
S11334A070B506000D00002801D172B6FEE70800D1
S11334B070434C300A4B9847041E0ED0002D03D0A5
S11334C003004C33036000E02060E66325640121BF
S11334D02000044B98470023A364200070BDC0461D
S11334E0D531000025340000F0B5CE46474680B5FE
S11334F085B004000F0001921D0000280CD00029A3
S11335000CD0022D0FD04E4B9847002810D1019BB0
S1133510002B11D072B6FEE772B6FEE7036C002BE7
S1133520EFD072B6FEE7E36B012BECD072B6FEE788
S11335300026444B98464CE00026FAE72A0039005E
S11335402000414B9847A36C002B0FD0290020008A
S11335503E4B9847002801D03D4B98473D4B984738
S1133560012005B00CBC90469946F0BD636A002B5F
S113357008D020002430384B98470028EED0344B34
S11335809847EBE70028E9D0314B9847E6E7314B01
S113359098470020E5E72F4B984701A902A82F4B35
S11335A09847002844D1274B9847A36B9946E66B6C
S11335B0284B9847B14535D1200010300199284B4C
S11335C098472000274B9847274B9847002826D038
S11335D00126C047A36BE26B9342AFD3022DADD05B
S11335E0019B002BD3D0002E02D102A81F4B984779
S11335F0184B98471E4B9847124B98474423E35C5B
S11336005BB2013302D100224423E2544523E35C3C
S11336105BB20133BFD100224523E254BBE70C4B1C
S11336209847D5E720000F4B98470F4B9847CFE7B3
S113363020000C4B98470C4B9847002091E7C0465C
S11336400D4100001531000069320000E532000030
S1133650FD3000002D310000F13F000091400000DA
S11336608D3F000075330000B13D0000794000003B
S1133670753C0000F0B583B00400019116001D00F4
S1133680002812D0019B002B11D0022D14D0284BFE
S113369098470090A36BE26B9A422FD800250098BC
S11336A0244B9847280003B0F0BD72B6FEE7036CC4
S11336B0002BEAD072B6FEE7E36B012B1AD072B688
S11336C0FEE7636A0125002BE9D0200024301A4B61
S11336D098470028E3D0002E0AD001233360DEE7A8
S11336E07B1C5BB24522A3540125D8E70125D6E70C
S11336F00125D4E70E4B98470090A36B4523E75C64
S11337007FB22A00019920000C4B98477B1CE7D11B
S1133710A36C002BD5D029002000094B9847012524
S11337200028BCD0002EE1D001233360B7E7C046A7
S11337304D31000055310000F13F000069320000B6
S1133740E5320000F0B5C64600B584B004000F00B1
S1133750019200280AD000290AD0424B9847002839
S11337600BD1019B002B0CD072B6FEE772B6FEE7BC
S1133770036C002BF1D072B6FEE700263A4B984654
S11337802FE00026FAE739002000384B9847013D26
S1133790A5632369002B07D020001030344B9847D1
S11337A0002801D0334B9847334B9847012004B08D
S11337B004BC9046F0BD304B98470020F7E702A8C0
S11337C02E4B984716E000224423E2541DE00022C9
S11337D04523E2541EE02000294B9847294B984783
S11337E00126C047A56B002DCDD1019B002BE2D053
S11337F0002EE4D0204B9847234B98471A4B984708
S11338004423E35C5BB20133DDD04523E35C5BB26C
S11338100133DCD0184B984701A902A81B4B9847E9
S1133820002813D120001A4B98470028D3D0200039
S113383024300199174B98472000114B9847114B9E
S113384098470028CCD10B4B9847C9E720000C4B74
S113385098470C4B984720000D4B98470028BFD041
S11338600020A4E70D410000153100004D33000095
S1133870F13F0000FD3000002D31000079400000D0
S113388075330000B13D0000753C0000914000001C
S11338904D3200008D3F000070B504000D0016008D
S11338A0114B98474423E35C5BB201330DD04523AD
S11338B0E35C5BB201330CD00C4B9847A36B002B39
S11338C00BD020000A4B984770BD00224423E254D9
S11338D0EDE700224523E254EEE7200024303200D5
S11338E02900044B9847ECE7153100002D31000006
S11338F075330000B93F0000084B1B681B68002BA0
S113390007D0064B1B68DB68DB685A68044B1A60F7
S1133910704701225242024B1A60F9E7E83F002047
S113392098400020F0B5D6464F464646C0B5144BE5
S11339309946144B9846144F144B9A464B461B68B1
S1133940002B16D0C047FB68DD68281DD047104AFD
S11339501368013B13600A4C2368013B23600D4B41
S11339609847286B0C4EB0472800B0472368002BBB
S1133970E8D10A4B1B68012BE0D9094B9847DDE7D6
S11339805840002015310000CC400020DB2F0000FF
S1133990544000202D31000041320000F03F00204F
S11339A0FD30000070B504000D00174B1E68174B66
S11339B018680430164B9847631C13D03419134B02
S11339C01B685C60A64216D8124B18680F4B196826
S11339D00431114B9847114B1B689C4212D20F4B78
S11339E01C600FE0002DE9D0084B196804310C4825
S11339F00C4B984706E00C4B1868044B19680431CB
S1133A00054B984770BDC046E0400020E43F0020CD
S1133A10DB2F0000E83F0020AD2F0000984000207D
S1133A20B8400020952F0000EC3F0020F0B5C646BA
S1133A3000B584B001900D000293970038005B4BF1
S1133A409847061E00D181E04C20584B9847041E2D
S1133A5000D178E00663381F301807239843804666
S1133A602A782D33E2542B78002B0DD00135230016
S1133A70353320003C302A781A702A78002A03D083
S1133A80013501338342F6D100223B23E2540A9FDD
S1133A90042F00D90427E762E76300262664231D68
S1133AA003931800424DA84720001830A84724610A
S1133AB00523DB1BA361646266644823E654029A0F
S1133AC0019940463B4B984720600B9B002B00D04C
S1133AD01C60394B9847394A136801331360384BDB
S1133AE01B68002B35D0374B1B68002B07D1344B98
S1133AF01B68DB6AE26A934201D8314B1C60324A8C
S1133B00136801331360E36A304A1268934201D99F
S1133B102E4A13609800C01880002D4B1818039982
S1133B202C4B98472C4B9847264B1B680120002BA5
S1133B3005D0234B1B68DA6AE36A9A4231D304B096
S1133B4004BC9046F0BD3000244B9847012040420D
S1133B50F5E71B4B1C601368012BD0D11C4F3800B8
S1133B601F4EB04738001430B04738002830B047F3
S1133B7038003C30B04738005030B047194B9846B5
S1133B801800B047184F3800B0471848B0471848D5
S1133B90B0471848B047184B42461A60174B1F608D
S1133BA0ADE7174B98470120C9E7C046D53100005F
S1133BB08F2F0000653000001531000054400020B4
S1133BC0E43F0020B440002064400020684000200E
S1133BD0F03F0020952F00002D31000041320000FD
S1133BE0792F00006C40002080400020A04000207D
S1133BF0CC400020B8400020E83F0020EC3F0020EB
S1133C00FD30000010B582B0114B019300230093E6
S1133C10642210491048114CA047012803D0431CCA
S1133C2013D002B010BD0E4B98470128F7D172B6DD
S1133C30012252420B4B1A6002320B4B1A600022D3
S1133C400A4B1A600A4B9847EBE772B6FEE7C04688
S1133C509440002040540000253900002D3A000013
S1133C605142000098400020B4400020E040002071
S1133C7089300000024A1368013313607047C0465C
S1133C8060400020014B18687047C046E0400020A7
S1133C90F0B583B0384B1B68002B60D1374B1D68DF
S1133CA001351D60002D12D1354B1B681B68002B9C
S1133CB001D072B6FEE7324A1168324B18681060C0
S1133CC01960314A136801331360304B9847304B05
S1133CD01B6800249D4233D30024294F3B681B6892
S1133CE0002B29D0264B1B68DB68DE6873689D4275
S1133CF032D3331D01931800264B9847B36A002B27
S1133D0003D030001830234B9847F36A224A1268D4
S1133D10934201D9204A13609800C01880001F4BB9
S1133D20181801991E4B98471E4B1B68F26ADB6AF0
S1133D309A42D3D30124D1E701225242144B1A6090
S1133D40184B1B68DA6A93009B189B00134A9B5814
S1133D50012B09D9012407E00D4A1360F0E7124A48
S1133D601368013313600024104B1B68002B00D030
S1133D700124200003B0F0BD60400020E04000209A
S1133D80E83F0020EC3F00209C400020F938000070
S1133D9098400020DB2F000068400020F03F002006
S1133DA0952F0000E43F00205C400020E440002008
S1133DB0F8B5304B1B68002B01D172B6FEE72E4BD1
S1133DC098472C4B1A68013A1A601B680024002B90
S1133DD003D12A4B1B68002B03D1294B98472000A1
S1133DE0F8BD284D2F002B68002B22D0FB68DC681F
S1133DF020001830244B9847261D3000224B98474A
S1133E00E36A224A1268934201D9204A1360980057
S1133E10C01880001E4B181831001E4B98471E4BCB
S1133E201B68DB6AE26A9A42DDD301221B4B1A60EB
S1133E30D9E7002C01D01A4B98471A4B1C68002C68
S1133E400ED0194F154E012502E0013C002C04D080
S1133E50B8470028F9D03560F7E70022114B1A6003
S1133E600E4B1B680024002BB7D0104B984701342D
S1133E70B3E7C046604000201531000054400020E4
S1133E802D310000A0400020DB2F000068400020FE
S1133E90F03F0020952F0000E43F0020E440002084
S1133EA0F93800005C400020913C0000FD30000027
S1133EB010B5041E0FD0094B1B68002B01D072B63D
S1133EC0FEE7074B984700212000064B9847064B16
S1133ED09847002801D1054B984710BD6040002049
S1133EE0753C0000A5390000B13D0000FD30000024
S1133EF010B5214B1B68002B18D100221F4B1A60F0
S1133F001F4B1B689A00D21892001E495258002A6F
S1133F1010D1002B08D0013B9A00D21892005258BD
S1133F20002A07D1002BF6D172B6FEE70122134B0B
S1133F301A6010BD13489A00D118890041184C68C2
S1133F4064684C60D21892000832821894420BD0F4
S1133F509A00D21892000B498A185268D1680A4A0A
S1133F601160074A1360E4E760689A00D21892006F
S1133F7004498A185060EBE760400020E4400020C8
S1133F8068400020F03F0020E43F002010B50C0002
S1133F90002801D172B6FEE7044B19681831044BAE
S1133FA0984701212000034B984710BDE43F0020AF
S1133FB0AD2F0000A539000070B50C0015000028D5
S1133FC00DD0084B19681831074B9847002D01D0C4
S1133FD00124644229002000044B984770BD72B646
S1133FE0FEE7C046E43F0020952F0000A5390000FD
S1133FF070B5C368DC68002C27D02500183528006C
S1134000154B9847154B1B68002B20D1251D280004
S1134010114B9847E36A124A1268934201D9104A35
S113402013609800C01880000E4B181829000E4B1E
S113403098470E4B1B68E26ADB6A00209A4203D958
S113404001220B4B1A60013070BD72B6FEE72900E5
S11340500848054B9847ECE7DB2F00006040002040
S113406068400020F03F0020952F0000E43F00202E
S1134070E4400020A0400020034B1B680360034B76
S11340801B6843607047C0469C400020E04000200D
S113409070B506000D0000281BD000291BD0134B5F
S11340A09847134B1A6871682B68581C1CD0114828
S11340B000683468844202D001248A4205D2521A2C
S11340C09A420AD300232B6001240B4B984720000B
S11340D070BD72B6FEE772B6FEE79B1A2B60300025
S11340E0064B98470024F0E70024EEE71531000062
S11340F0E04000209C4000202D3100007940000069
S11341000122014B1A607047E4400020054B1B68F4
S11341100120002B04D0044B18684342584140004E
S11341207047C046B44000206040002070B5041EB3
S11341302CD0184B1B68984201D072B6FEE7036C72
S1134140002B01D172B6FEE7013B0364C26AC16B66
S11341508A421DD00020002B17D1251D28000E4BAC
S11341609847E36BE3620522D21AA2610B4A1268F4
S1134170934201D9094A13609A00D3189B00084856
S1134180C0182900074B9847012070BD0020FCE7A8
S11341900020FAE7E43F0020DB2F00006840002005
S11341A0F03F0020952F000010B54160006191425E
S11341B00BD8D21A012483699A4211D2011D094BEA
S11341C01868094B984700240AE09A4202D2012455
S11341D0994205D2011D054B1868034B98470024EA
S11341E0200010BDEC400020AD2F0000E84000206E
S11341F070B50E4B98470E4B1B68002B02D00D4B2D
S1134200984770BD0C4D28000C4EB0470C4C200054
S1134210B0470C4B1D600C4B1C6000220C2102208B
S11342200A4B9847024B1860E9E7C0461531000075
S11342301C4100202D310000F0400020792F0000A7
S113424004410020E8400020EC400020A13400009C
S113425010B582B00A4B98470A4B1B68002B0DD04F
S1134260094B019302230093002350220749084875
S1134270084CA047002801D002B010BD72B6FEE77A
S1134280F14100001C410020204100207054000036
S1134290BD4300002D3A000030B585B004001D0078
S11342A0002814D0134B1868002821D001910292E1
S11342B00394052915DC104B9847022809D00D4BAF
S11342C018680023002201A90C4CA0470EE072B626
S11342D0FEE7084B18680023089A01A9074CA04779
S11342E004E000232A0001A9054CA04705B030BD15
S11342F00020FBE71C4100200D410000E9340000D0
S113430075360000F0B5D6464F464646C0B582B075
S11343108046234B98478246224B1B68984217D30A
S11343200023424613601F4B52461A60504602B0A7
S11343301CBC90469946A246F0BD002300933A0067
S113434000212000184CA047002804D172B6FEE7D3
S1134350164D174B99462B681A68002A17D0DB684C
S11343601F68DC68261D3000C8472000636A984730
S1134370E369012BEFD1A369FB189F42DDD263608F
S113438024610A4B186831000A4B9847E3E70A4A4C
S11343900649106808601360012342461360C2E7AF
S11343A0853C00001841002099420000E8400020AC
S11343B0DB2F0000AD2F0000EC400020F0B589B0E9
S11343C0524F534B1B681A68002A0ED0DB681C68D6
S11343D0504B984705A8504B98470500059B002B68
S11343E05FD1A04236D200220FE04A4B984705A87D
S11343F0494B98470500059B002B52D1474B1B683E
S11344001B685A425A41D2B20024611B444B1868BB
S1134410444B9847444B984700283FD0404D434C69
S1134420002205A92868A0470028CAD0059B039349
S1134430002BF5DB079E7369002B01D0301DB847B4
S113444004A8354B9847059B092BE9D89B00384AAB
S1134450D3589F46344B98472D4B1B68DB68DE6866
S1134460301D2A4B9847F369012B03D0736A30003F
S11344709847D3E7B369E11823002A0030002D4D93
S1134480A8470028F2D00023009322000021300026
S1134490294CA0470028E9D172B6FEE7274B98477C
S11344A0BCE7214B9847B9E7069BB269944663443D
S11344B01900069B020030001E4CA0470028AED015
S11344C03000736A9847F369012BA8D1069BB16940
S11344D08C4663441A000023009300213000164CDC
S11344E0A04700289BD172B6FEE70699B161002966
S11344F006D041180300020030000E4CA0478EE79E
S113450072B6FEE730000E4B984788E7DB2F0000B9
S1134510E8400020753C000005430000EC4000200A
S11345201C41002099380000B13D000045370000CF
S113453048540000A941000099420000FD300000E9
S11345404132000010B5044B9847044B9847044B84
S11345509847044B9847FEE7612E0000A919000014
S11345601D170000053C0000002243088B4274D351
S113457003098B425FD3030A8B4244D3030B8B4260
S113458028D3030C8B420DD3FF22090212BA030C69
S11345908B4202D31212090265D0030B8B4219D34A
S11345A000E0090AC30B8B4201D3CB03C01A52416A
S11345B0830B8B4201D38B03C01A5241430B8B42B2
S11345C001D34B03C01A5241030B8B4201D30B039B
S11345D0C01A5241C30A8B4201D3CB02C01A5241C2
S11345E0830A8B4201D38B02C01A5241430A8B4285
S11345F001D34B02C01A5241030A8B4201D30B026E
S1134600C01A5241CDD2C3098B4201D3CB01C01A87
S1134610524183098B4201D38B01C01A5241430991
S11346208B4201D34B01C01A524103098B4201D37F
S11346300B01C01A5241C3088B4201D3CB00C01AEC
S1134640524183088B4201D38B00C01A5241430864
S11346508B4201D34B00C01A5241411A00D2014689
S1134660524110467047FFE701B5002000F006F8FC
S113467002BDC0460029F7D076E770477047C046B0
S1134680F0B5CE46474615042D0C2E0080B5070420
S1134690140C3F0C9946030C7E435D43674363430C
S11346A07F19340CE4199C46A54203D980235B028C
S11346B09846C4444B46514343433604360C250CB8
S11346C024046544A4195918491920000CBC9046C7
S11346D09946F0BD70B500260C4D0D4C641BA4101A
S11346E0A64209D1002600F011FF0A4D0A4C641BB2
S11346F0A410A64205D170BDB300EB58984701360B
S1134700EEE7B300EB5898470136F2E7185500007E
S113471018550000185500001C550000002310B562
S11347209A4200D110BDCC5CC4540133F8E70300B5
S11347308218934200D1704719700133F9E70000E1
S113474070B50500002910D00C1F2368002B00DA77
S1134750E418280000F0FCF81D4A1368002B05D16A
S113476063601460280000F0F4F870BDA34209D916
S1134770216860188342F3D118685B68411821608E
S1134780EEE713005A68002A01D0A242F9D9196849
S11347905818A0420BD12068091858181960824291
S11347A0E0D110685268411819605A60DAE7A042F3
S11347B002D90C232B60D5E721686018824203D10B
S11347C0106852684118216062605C60CAE7C046A4
S11347D024410020032370B5CD1C9D4308350600F9
S11347E00C2D1ED20C25A9421DD8300000F0B0F8C3
S11347F0254A14682100002919D1244C2368002B70
S113480003D1300000F044F820602900300000F0AB
S11348103FF8431C2CD10C233000336000F099F88E
S113482003E0002DDFDA0C233360002070BD0B6839
S11348305B1B1AD40B2B03D90B60CC18256003E047
S11348408C420ED163681360300000F082F82000BF
S113485007220B30231D9043C31AE7D05A42E2507B
S1134860E4E74B6863600C00EEE70C004968C2E7BC
S11348700323C41C9C43A042E0D0211A300000F062
S113488007F8431CDAD1C6E7244100202841002060
S1134890002370B5064C050008002360FEF75AFBA0
S11348A0431C03D12368002B00D02B6070BDC0468D
S11348B0405400200EB410B59DB002A902900861C6
S11348C00B48822488604861012040421FABC881A4
S11348D0084804CBA400006801938C8100F09CF884
S11348E00023029A13701DB010BC08BC03B0184713
S11348F0FFFFFF7F580000200023C25C0133002A21
S1134900FBD1581E7047000030B59BB00091049154
S113491008496D4602910591012182244942E981A9
S1134920A4006946AC8100F077F80023009A137064
S11349301BB030BDFFFFFF7F10B513000A0001005C
S113494002480068FFF7E0FF10BDC0465800002091
S113495070477047F0B58E6885B007000C0003926D
S113496001939E4239D890238A89DB001A4234D0BD
S11349700325096923685B1A0293636902985D43FE
S1134980EB0F5D19019B6D1001331B18AB4200D96D
S11349901D00530532D529003800FFF71BFF061E02
S11349A009D10C233B6040230120A28940421343D8
S11349B0A38105B0F0BD029A2169FFF7AFFEA38978
S11349C0144A1A4080231343A381029B2661F618DC
S11349D026606561019EED1AA560019BB34200D279
S11349E01E0032000399206800F0ADFAA36800208D
S11349F09B1BA36023689E192660DAE72A0038000F
S1134A0000F0B3FA061EE0D121693800FFF798FEE2
S1134A10C7E7C0467FFBFFFFF0B59FB00290059348
S1134A208B890F0016001B0611D50B69002B0ED1C4
S1134A304021FFF7CFFE38603861002805D10C23F0
S1134A40029A013813601FB0F0BD40237B6100233C
S1134A5006AD6B6120336B761033AB76340023786C
S1134A60002B47D1A31B04930DD0A31B32003900A4
S1134A700298FFF76FFF431C00D1B5E06A69049BFD
S1134A80944663446B612378002B00D1ACE001228F
S1134A90002352426A6002A95432521801342B6036
S1134AA0EB60AB601370AB65584E05222178300083
S1134AB000F03EFA621C002820D12968CB0604D5F8
S1134AC0532302AE20309B1918700B0704D55323CF
S1134AD02B2002AE9B19187023782A2B16D00020A5
S1134AE00A21099B2278303A092A55D9002815D081
S1134AF0099313E0252BB5D00134B0E70123801BC3
S1134B008340296814000B432B60CDE7059B181DD7
S1134B101B680590002B39DB0993140023782E2B96
S1134B200BD16378621C2A2B3ED1059B02341A1DDB
S1134B301B680592002B34DB0793354E2178032242
S1134B40300000F0F5F9002806D04023801B834094
S1134B502A68013413432B60217806222D48661CF1
S1134B60297600F0E5F9002846D02B4B002B2FD1F5
S1134B702968059B0722C90528D59B189343083348
S1134B8005936B69039A9B186B6167E75B42EB6063
S1134B9002230B432B60C0E74B4301349B180120D5
S1134BA0A0E701235B42C7E7002314000A201A0090
S1134BB06B6021783039092903D9002BBDD00792C5
S1134BC0BBE74243013452180123F2E70733D5E728
S1134BD005AB00933A00114B2900029800E000BF96
S1134BE00390039B0133CCD1BB890B985B0600D4A3
S1134BF029E70120404226E705AB00933A00074B22
S1134C002900029800F07AF8EAE7C046D854000078
S1134C10DE540000E254000000000000554900008A
S1134C20F7B5150001938A680B6900900C00934254
S1134C3000DA130022002B6043321278002A01D0DC
S1134C4001332B6023689B0602D52B6802332B604B
S1134C50062723681F4027D0230043331B785A1E9E
S1134C6093412268920630D422000199433200987D
S1134C70089EB047431C25D0062320682A68E168B3
S1134C8003400025042B03D18D1AEB43DB171D4091
S1134C90A3682269934201DD9B1AED180027BD42E7
S1134CA020D1002010E00137E3682A689B1A9F4254
S1134CB0D2DA22000123193201990098089EB047E4
S1134CC0431CF0D101204042FEBD3020E1184331A5
S1134CD0087021005A1C45310978A2184332023366
S1134CE01170C1E7220001231A3201990098089E2D
S1134CF0B047431CE6D00137D1E70000F0B58BB0D4
S1134D0006920A0043320793059004920A7E0C002F
S1134D10109B6E2A00D18FE017D8632A2CD008D8B4
S1134D20002A00D199E0582A54D026004236327025
S1134D3029E0642A01D0692AF7D121681A68080693
S1134D4023D5111D1960156825E0732A00D188E068
S1134D5008D86F2A29D0702AE7D1202209680A438B
S1134D60226003E0752A20D0782ADED1220078213F
S1134D70453211706C4A30E00E001A684236111D3B
S1134D80196013683370012379E04906D9D5111DE0
S1134D9019600023D55E002D03DA2D23049A6D4299
S1134DA01370624B0A2703932FE0206819680506E5
S1134DB003D5081D18600D6805E04006F9D50D6897
S1134DC0081D1860ADB2594B082703936F2A18D0F9
S1134DD00A2716E045310A70544A03921A6821687A
S1134DE0101D18601568080622D5CB0702D52023AC
S1134DF0194321601027002D03D1202322689A43F0
S1134E0022602300002243331A706368A360002BDE
S1134E105CDB0422216891432160002D58D1049E5B
S1134E20002B64D02600039B42361B7833705EE06F
S1134E304806DAD5ADB2D8E709681A68080605D578
S1134E40111D1960136862691A6006E04906F7D5F6
S1134E50111D19601368A28A1A800023049E23611D
S1134E6054E01A68111D1960166800216268300048
S1134E7000F05EF8002801D0801B60606368236145
S1134E800023049A137041E02369320006990598BF
S1134E90079DA847431C43D0236800259B070FD4D4
S1134EA0099BE06898423DDA18003BE022000123A8
S1134EB0193206990598079EB047431C30D0013536
S1134EC0E368099A9B1A9D42F0DBE9E7002DA9D01B
S1134ED0049E28003900FFF7CDFB039B013E5B5C79
S1134EE0280033703900FFF73FFB051EF1D1082F6E
S1134EF009D12368DB0706D563682269934202DC83
S1134F003023013E3370049B9B1B2361079B09AA3A
S1134F1000932100069B0598FFF782FE431CB3D142
S1134F20012040420BB0F0BDFA540000E9540000E7
S1134F30C9B28218904201D10020704703788B4295
S1134F40FBD00130F6E710B5884202D98B1898429D
S1134F5008D300239A4207D0CC5CC4540133F9E748
S1134F608B5C8354013AFBD210BDF8B507000D00E9
S1134F701600002905D11100FFF72CFC04002000C5
S1134F80F8BD002A03D1FFF7DBFB3400F7E700F09C
S1134F9012F82C008642F2D931003800FFF71AFCCF
S1134FA0041EECD029003200FFF7B8FB29003800BA
S1134FB0FFF7C6FBE3E70B1F1B68181F002B01DA82
S1134FC00B58C018704700001B5B324A1B5B303B18
S1134FD0304800004465627567205461736B0000BB
S1134FE01B5B33303B3130336D44656275673A2067
S1134FF0201B5B34303B33376D2000001B5B3330A8
S11350003B3130316D4572726F723A20201B5B3434
S1135010303B33376D2000001B5B33303B31303283
S11350206D496E666F3A2020201B5B34303B33376A
S11350306D2000001B5B33303B3130356D5761729E
S11350406E756E673A1B5B34303B33376D2000005E
S11350506A110000721100008E110000841100001A
S113506098110000A2110000AC110000C41100004E
S1135070DE110000FC110000041200000E120000FA
S11350806611000018120000201200003012000007
S113509000080000020202020202020202020202EC
S11350A002020202573578303020696E69746961F2
S11350B06C697A6564206661696C2E0D0A000000D3
S11350C0573578303020696E746572727570740D5E
S11350D00A000000556E6B6E6F776E2050485920A1
S11350E06C696E6B207374617475732E0D0A000005
S11350F0573535303020696E697469616C6973693C
S1135100657274004F7574507574536E5F535220FA
S11351103A2025640A000000485454502052657116
S1135120756573742072656365697665643A200DEC
S11351300A25730D0A00000053504920496E697412
S113514069617465640000003C21444F4354595024
S1135150452068746D6C3E09093C68746D6C3E09A9
S1135160093C626F64793E09093C68313E546869C0
S1135170732069732068656164696E6720313C2F10
S113518068313E09093C68323E546869732069738A
S11351902068656164696E6720323C2F68323E097D
S11351A0093C68333E5468697320697320686561FB
S11351B064696E6720333C2F68333E09093C6834C8
S11351C03E546869732069732068656164696E6719
S11351D020343C2F68343E09093C68353E546869E4
S11351E0732069732068656164696E6720353C2F9C
S11351F068353E09093C68363E5468697320697312
S11352002068656164696E6720363C2F68363E0904
S1135210093C2F626F64793E09093C2F68746D6CF8
S11352203E00000062000000630000004D41432086
S113523041646472657373203A20253032783A25CC
S11352403032783A253032783A253032783A25307F
S113525032783A253032780A0D0000004950202077
S113526041646472657373203A2025642E25642E8C
S113527025642E25640A0D005375626E6574204DF5
S113528061736B203A2025642E25642E25642E2517
S1135290640A0D004761746577617920202020201D
S11352A03A2025642E25642E25642E25640A0D00DB
S11352B0444E532053657276657220203A2025644B
S11352C02E25642E25642E25640A0D00485454505E
S11352D02F312E3120323030204F4B0D0A00000088
S11352E0436F6E74656E742D547970653A207465DD
S11352F078742F68746D6C0D0A000000436F6E6E35
S1135300656374696F6E3A20636C6F73650D0A0090
S11353102573436F6E74656E742D4C656E67746887
S11353203A202564000000000D0A0D0A0000000068
S11353302573000053414D4432312050726F6A6529
S11353406B74206D697420573535303020496E7484
S11353506567726174696F6E00000000496E666F64
S113536020426569737069656C000000446562756C
S11353706720426569737069656C00005761726EDD
S1135380756E6720426569737069656C0000000082
S11353904572726F7220426569737069656C0000B2
S11353A04E6F63682065696E205061617220427996
S11353B074657320616C7320546573742061757314
S11353C06761626520696D205541525400000000F8
S11353D06D61696E546573745F7461736B00000072
S11353E000080042000C0042001000420014004279
S11353F000180042001C0042E2280000DE280000E1
S1135400DE2800004429000044290000F62800009A
S1135410E8280000FC28000032290000CC29000004
S1135420AC290000AC290000382A0000BE29000085
S1135430DA290000B0290000E8290000282A000029
S113544049444C4500000000A8440000A844000062
S1135450A844000020440000EA4400000445000081
S1135460A8440000A844000020440000EA440000CE
S1135470546D7220537663000000000000000000A9
S11354800000000000000000000000000000000018
S11354900000000000000000000000000000000008
S11354A000000000000000000000000000000000F8
S11354B000000000000000000000000000000000E8
S11354C000000000000000000000000000000000D8
S11354D00000000000000000232D302B2000686C29
S11354E04C00656667454647003031323334353603
S11354F0373839414243444546003031323334353C
S1135500363738396162636465660000F8B5C046B1
S1135510F8BC08BC9E467047DD000000F8B5C046E4
S10F5520F8BC08BC9E467047B5000000B3
S113552C00C0000001025735353030000000000087
S113553C890D00008B0D00008D0D00008F0D0000F7
S113554C910D0000970D0000000000000000000009
S113555C0008DC789171C0A8B20AFFFFFF00C0A854
S113556CB201080808080100401F000008000000F0
S113557C01000000AAAAAAAA5C00002000000000F6
S113558C98540000B8540000785400000000000047
S113559C00000000000000000000000000000000FB
S11355AC00000000000000000000000000000000EB
S11355BC00000000000000000000000000000000DB
S11355CC00000000000000000000000000000000CB
S10F55DC000000000000000000000000BF
S9032E715D
