S02000005350495F4578616D706C655F4D6173746572506F6C6C65642E73726563C2
S113000068200020250E0000210E0000210E0000B3
S113001000000000000000000000000000000000DC
S1130020000000000000000000000000210E00009D
S11300300000000000000000210E0000210E00005E
S1130040210E0000210E0000210E0000210E0000F0
S1130050210E0000210E0000210E0000210E0000E0
S1130060210E0000210E0000210E0000210E0000D0
S1130070210E0000210E0000210E0000210E0000C0
S1130080210E0000210E0000210E0000210E0000B0
S1130090210E0000210E0000210E0000210E0000A0
S11300A0210E0000210E0000210E0000210E000090
S11300B00000000010B5064C2378002B07D1054B37
S11300C0002B02D0044800E000BF0123237010BDC0
S11300D0180000200000000028120000084B10B592
S11300E0002B03D00749084800E000BF0748036815
S11300F0002B00D110BD064B002BFBD09847F9E72D
S1130100000000001C00002028120000281200003B
S1130110000000000C4B1B68002B06D1EFF310838A
S1130120002B07D00022094B1A70074A13680133C9
S11301301360704772B6BFF35F8F0022044B1A70CE
S11301400132024B1A70F0E734000020380000201E
S113015000000020084B1A68013A1A601B68002B43
S113016009D1064B1B78002B05D00122044B1A70D1
S1130170BFF35F8F62B67047340000203800002060
S113018000000020F0B583B001AC012565700027A4
S1130190A770257021003E20064EB0478022D2056C
S11301A0054B9A612770657021000F20B04703B09A
S11301B0F0BDC046BD0100008044004100B583B0DD
S11301C001AB80221A700A785A704A789A708A7839
S11301D0DA701900014B984703B000BDC10D00004F
S11301E010B5490840230024814202D2180010BDF2
S11301F01C00091A631C9BB28842F9D94023FF2CC6
S1130200F4D814800023F1E710B582B004000E4B3B
S11302101B78002B07D0002905D10B4B5B78834258
S113022010D01D200CE001A90C701320074B984737
S11302301320074B9847044B5C7001221A7000206E
S113024002B010BD0020FBE73C000020C90C0000F8
S11302503D0C0000404B984231D00AD93F4B9842A4
S11302604DD03F4B98425AD03E4B984237D0002055
S113027070473D4B98420CD03C4B9842F7D1012932
S113028017D000295DD0022915D0032915D00020EC
S1130290EEE7012907D0002951D0022905D003290E
S11302A005D00020E4E73248E2E73248E0E732488C
S11302B0DEE73248DCE73248DAE73248D8E701299A
S11302C007D000293FD0022905D0032905D00020FA
S11302D0CEE72D48CCE72D48CAE72D48C8E70129C9
S11302E007D0002931D0022905D0032905D00020E8
S11302F0BEE72848BCE72848BAE72848B8E70129F8
S113030007D0002923D0022905D0032905D00020D5
S1130310AEE72348ACE72348AAE72348A8E7012926
S113032007D0002915D0022905D0032905D00020C3
S11303309EE71E489CE71E489AE71E4898E71E4819
S113034096E7032094E71D4892E71D4890E71D486F
S11303508EE71D488CE7C04600100042001800429A
S1130360001C00420014004200080042000C00423D
S1130370030005000300060003000700030001005A
S113038003001E0003001F000300090003000A000D
S113039003000B000300110003001200030013000C
S11303A003000D0003000E0003000F0003001700FC
S11303B003001800030019000300040003000800F0
S11303C00300100003000C000300160030B587B0D2
S11303D00B4B6A4632CB32C232CB32C2009B8342D1
S11303E00BD001239A0069465258824206D0013349
S11303F0062BF7D1002007B030BD0023D8B2FAE7AE
S1130400A8110000F0B5D6464F4680B58BB08146A2
S11304100F001400030019600B689B0709D40B68D4
S11304200520DB0700D498E00BB00CBC91469A463B
S1130430F0BD936A0593D36A0693136B0793536BCA
S11304400893002605AB01930AE03800934B9847C4
S11304500CE00F23184081422DD10136042E2FD0F9
S1130460F1B2B300019A98580028EED0431CF4D09E
S11304700104090C000CC3B29C460023020605D4F7
S113048063465B09DB01864A924653441F22604659
S11304900240981840300078824680205546ED0787
S11304A0D9D552089B1830331878C0B26346DB079D
S11304B0CFD50009CFE700234A4613601C20B3E7D9
S11304C01320784B984722780025012A27D06368A7
S11304D0A2681343E26813432B43227C617C002906
S11304E001D080210B43A17C002902D08021890204
S11304F00A43E17C002902D0802189000A43217D3E
S1130500002902D0802189010A433968022003436B
S11305108B4218D000234A4613601C2084E704AAA7
S11305200100A069604B984703001720002B00D0FE
S11305307AE73B7BDBB204AA127805309A4200D0FA
S113054072E70C35C3E77B689342E3D123784A46CC
S11305505371237C9371002066E70800534B98473E
S1130560534A116A851C0123AB400B43136209A94A
S11305702426A35D0B701430C5B228004D4B984758
S113058028004D4B9847A05D00214C4B9847237899
S1130590012B19D04B461E6804AB80221A7000222E
S11305A05A7001219970DA702378002B01D104ABC1
S11305B09A70A36A0593E36A0693236B0793636BAC
S11305C00893002705AD11E03B680C2213433B6000
S11305D0E0E73000314B98470DE004A90870000CA7
S11305E0C0B2374B98470137042F07D0F9B2BB008C
S11305F058590028EDD0431CEFD1F4E723784A463C
S11306005371237C9371A37CD371237D13720022D5
S113061002ABDA802378012B28D06368A2681343E5
S1130620E2681343217C627C002A03D1254A927834
S1130630920701D580221343A27C002A02D0802293
S113064092021143E27C002A02D0802292001143DC
S1130650227D002A02D08022920111433268134382
S1130660336073680B4373600020DDE64B46186803
S11306700E4B98471430C0B20A4B9847010002ABA6
S11306809A1DA069084B984703001720002B00D03F
S1130690CAE602AB06331B783373BEE7550200008B
S11306A000440041E50C0000E1010000CD0300001E
S11306B000040040C90C00003D0C000009020000C9
S11306C0C10D00000020004110B544791523012C10
S11306D001D0180010BD047A0023002CF9D1002A9F
S11306E058D04B78002B44D003681B7EDB0710D412
S11306F00A78D1090023002904D15309DB012E49CA
S11307008C4663441F21114001228A409A610523CB
S1130710DFE70A78D4090023002C04D15309DB0154
S1130720254CA44663441F2414400122A2405A616C
S113073003681A7ED20701D58A789A62C2790023A7
S1130740002AC6D102680421137E0B42FCD0117E1C
S113075000234907BDD5538B5B0701D5042353837D
S11307608379012B02D0936A0023B2E7936A0023B2
S1130770AFE70A78D1090023002904D15309DB012A
S11307800D498C4663441F21114001228A405A615D
S113079000239EE70A78D1090023002904D15309D4
S11307A0DB0105498C4663441F21114001228A4024
S11307B09A6100238DE7C04600440041F0B5DE464F
S11307C057464E464546E0B583B08A461723002A6D
S11307D04BD1180003B03CBC90469946A246AB46A8
S11307E0F0BD0237BFB241465346595C09025B462D
S11307F00B4318E08379012B2AD0936A013EB6B2E9
S1130800664527D00268137E2342FCD07B1C9BB232
S113081098465346DB5D9B4681790129E1D06946C0
S1130820CB80CB884746117E214202D0DB05DB0D0D
S11308309362C379002BE1D00268137E2B42FCD073
S1130840137E2B42DAD0538B2B42D3D05583D1E77E
S1130850936AD3E742790023012ABAD101680132AD
S11308600B7E1342FCD00023B3E7013A96B2002773
S113087001240425014B9C46C4E7C046FFFF000049
S113088010B5082803D880001C4B1B589F46002035
S113089032E01B4B18692FE01A4B1B6A9B059B0F18
S11308A01948D84028E0164B586925E0144B1B68BA
S11308B000209B0720D513491022CB681A42FCD094
S11308C00F4B1A6824231340042B01D00F4813E064
S11308D000200F4B98470A4B9B681B041B0C584382
S11308E00AE05023074AD35C00205B0704D5044B7D
S11308F0D86801E08020000210BDC046C01100008D
S1130900400000200008004000127A00006CDC0265
S1130910E50C000070B50C490B6A047885784078C2
S11309200122104080014026B34303432A40D201F0
S113093080208343134303222240120203480340CE
S113094013430B6270BDC04600080040FFFCFFFF6C
S1130950082803D88000254B1B589F46172044E0E5
S1130960234A136A02210B43136200203DE0204A0C
S1130970936902210B439361002036E01C4A138AD9
S113098002210B43138200202FE0194A938A02218B
S11309900B439382002028E016490B68022213437C
S11309A00B60134B9A8419000E32CB681A42FCD0A8
S11309B0104A91680E4BD96252689A6200229A8456
S11309C019001032CB681A42FCD00A4B1B689BB248
S11309D0074A9384002008E0054944228B5C0220E6
S11309E003438B54002000E000207047E411000012
S11309F0000800404000002030B585B0C222D2007B
S1130A001A4B9A601A4A53681E218B435360012380
S1130A106A4613700024174DE0B26946A8470134B2
S1130A20252CF9D103A80024447001258570047095
S1130A30114B98470620114B9847114B9847114B7F
S1130A401C725C729C72DC7201956B465C700623AE
S1130A506A46137014725472694600200A4B984710
S1130A6000200A4B984705B030BDC046000800403E
S1130A7000400041C90C00001509000051090000A4
S1130A80910A000000040040B50A00006D0B00004C
S1130A90064A936908210B4393610122044B1A709F
S1130AA019000B781342FCD17047C0460004004083
S1130AB0000C004070B5060004000D782D020543BB
S1130AC04B78002B02D08023DB021D434B7A002B92
S1130AD002D080231B031D434868012810D9431EFC
S1130AE0184234D1022830D90223002201325B009B
S1130AF09842FBD812023243140080235B031D4347
S1130B000B7A002B02D080239B031D43134A537896
S1130B105BB2002BFBDB124B9847124B1E700F4A43
S1130B2053785BB2002BFBDB0C4B9C601A005378B0
S1130B305BB2002BFBDB094A5368802149020B405E
S1130B401D435560084B984770BD0022D2E704024C
S1130B50344380239B021D43D2E7C046000C00406F
S1130B6015010000080C00405501000010B50400F8
S1130B700B4A53785BB2002BFBDB0A4B98470A4BBA
S1130B801C70074A53785BB2002BFBDB044A5168A4
S1130B9080235B020B435360044B984710BDC0464F
S1130BA0000C004015010000040C00405501000039
S1130BB070B504001A4A53785BB2002BFBDB194B67
S1130BC09847194B1C70164A53785BB2002BFBDB19
S1130BD0134E7068C004C00E144B98470500124BA6
S1130BE01C707668F602F60F114B1C700C4A537891
S1130BF05BB2002BFBDB0A4B9C682402240C0D4BDC
S1130C009847002E07D1012C07D9210028000A4B50
S1130C109847050001E00134E540280070BDC04656
S1130C20000C004015010000040C00408108000085
S1130C30080C0040550100003910000010B50400F4
S1130C40064B9847064B1C70064A53888021C901FD
S1130C500B435380044B984710BDC0461501000058
S1130C60020C0040000C00405501000010B50400C7
S1130C700F4B98470F4B1C700F4A53881B05180FD6
S1130C8053880E490B40538053880D490B405380C1
S1130C9011008022D2014B881342FCD106494A88B4
S1130CA003020648024013434B80064B984710BD8D
S1130CB015010000020C0040000C0040FFF0FFFF93
S1130CC0FFBFFFFF5501000010B50C782402044358
S1130CD0024B9847A4B2024B5C8010BD6D0C00001F
S1130CE0000C004010B50400064B9847064B1C70DE
S1130CF0064B5C882405240F054B98472000054BC0
S1130D00984710BD15010000020C0040000C004083
S1130D1055010000B10B000030B5D378002B35D15C
S1130D201378802B29D01B06802464022343547833
S1130D300225AC4306D19478002C20D18024A4024F
S1130D40234341605478013C012C1CD90D042D0C23
S1130D50A024E4052C431C4384620D0CD0242406F7
S1130D602C431C438462D478002C22D15B031CD511
S1130D709378012B1ED0416117E00023D7E7C024EC
S1130D80E4022343DDE70D4C2340DFE741600C041C
S1130D90240CA023DB05234383620C0CD0231B0605
S1130DA023438362D378002B03D15378013B012B77
S1130DB002D930BD8161F8E78160FAE7FFFFFBFFEC
S1130DC010B50A00C1090023002904D14309DB013D
S1130DD005498C4663441F242040012181401800AA
S1130DE0024B984710BDC04600440041190D000055
S1130DF07047000010B5054B9847054B9847054BC5
S1130E009847054B9847054B984710BDF9090000D2
S1130E1085010000F10D0000F10D0000F10D00004E
S1130E20FEE70000F8B52A4A2A4B9A4211D01A006C
S1130E30294B9A420DD2294A03339B1A9B0801334A
S1130E409B000022234822498C58845004329A4241
S1130E50FAD1234A234B9A420AD2D34321495B183D
S1130E6003218B4304339B18002102C29342FCD11B
S1130E701D4AFF211D4B8B439360FD3990235B007A
S1130E801B4AD1501B4AD3780325AB430224234386
S1130E90D370D3780C27BB4308263343D370164B47
S1130EA0987B30229043202210439873997BB94356
S1130EB0314399739A7BAA4322439A730F4A536826
S1130EC080210B4353600E4B98470E4B9847FEE727
S1130ED02812000000000020180000200400002058
S1130EE0180000206800002000ED00E00000000071
S1130EF000700041005000410048004100400041A2
S1130F0051110000D50F000030B591B0264C0523D7
S1130F10237000236370A37001A901224A708B70AF
S1130F200A700520214B98472278D1090023002913
S1130F3004D15309DB011E498C4663441F2111402F
S1130F40012210008840986102AC227000230393B0
S1130F50049323746374A274E27423752332A35438
S1130F60183A002108A8134B9847134BA361802318
S1130F705B02E360114BA36201235B42E362104B0B
S1130F802363104B6363104D220010492800104B5B
S1130F9098472A68D369002BFCD1136802210B43BC
S1130FA0136011B030BDC04664000020BD010000D4
S1130FB00044004199110000A086010003000400D0
S1130FC00300060003000700580000200008004248
S1130FD00504000070B50F4B98470F4B98470F4D11
S1130FE00F4C104E1049802212020B6A1342FCD19E
S1130FF0012229002000B04714220C4920000C4B88
S11310009847002229002000B0478022D205094BCE
S11310105A61E7E7F50D0000090F000064000020A5
S113102058000020C90600000044004104000020CC
S1131030BD07000080440041002243088B4274D362
S113104003098B425FD3030A8B4244D3030B8B42C5
S113105028D3030C8B420DD3FF22090212BA030CCE
S11310608B4202D31212090265D0030B8B4219D3AF
S113107000E0090AC30B8B4201D3CB03C01A5241CF
S1131080830B8B4201D38B03C01A5241430B8B4217
S113109001D34B03C01A5241030B8B4201D30B0300
S11310A0C01A5241C30A8B4201D3CB02C01A524127
S11310B0830A8B4201D38B02C01A5241430A8B42EA
S11310C001D34B02C01A5241030A8B4201D30B02D3
S11310D0C01A5241CDD2C3098B4201D3CB01C01AED
S11310E0524183098B4201D38B01C01A52414309F7
S11310F08B4201D34B01C01A524103098B4201D3E5
S11311000B01C01A5241C3088B4201D3CB00C01A51
S1131110524183088B4201D38B00C01A52414308C9
S11311208B4201D34B00C01A5241411A00D20146EE
S1131130524110467047FFE701B5002000F006F861
S113114002BDC0460029F7D076E770477047C04615
S113115070B500260C4D0D4C641BA410A64209D199
S1131160002600F051F80A4D0A4C641BA410A64254
S113117005D170BDB300EB5898470136EEE7B300D4
S1131180EB5898470136F2E71412000014120000DD
S1131190141200001812000003008218934200D1B8
S11311A0704719700133F9E700080042000C00424F
S11311B0001000420014004200180042001C0042CB
S11311C0920800008E0800008E080000F408000059
S11311D0F4080000A608000098080000AC0800000D
S11311E0E20800007C0900005C0900005C090000C2
S11311F0E80900006E0900008A0900006009000087
S113120098090000D8090000F8B5C046F8BC08BC2D
S11312109E467047DD000000F8B5C046F8BC08BC27
S10B12209E467047B500000072
S113122801000000000102030405060708090A0B6F
S10B12380C0D0E0F101112132E
S9030E25C9
